{
  "contractName": "Voting",
  "abi": [
    {
      "anonymous": false,
      "inputs": [
        {
          "indexed": true,
          "internalType": "address",
          "name": "previousOwner",
          "type": "address"
        },
        {
          "indexed": true,
          "internalType": "address",
          "name": "newOwner",
          "type": "address"
        }
      ],
      "name": "OwnershipTransferred",
      "type": "event"
    },
    {
      "anonymous": false,
      "inputs": [
        {
          "indexed": false,
          "internalType": "uint256",
          "name": "proposalId",
          "type": "uint256"
        }
      ],
      "name": "ProposalRegistered",
      "type": "event"
    },
    {
      "anonymous": false,
      "inputs": [],
      "name": "ProposalsRegistrationEnded",
      "type": "event"
    },
    {
      "anonymous": false,
      "inputs": [],
      "name": "ProposalsRegistrationStarted",
      "type": "event"
    },
    {
      "anonymous": false,
      "inputs": [
        {
          "indexed": false,
          "internalType": "address",
          "name": "voter",
          "type": "address"
        },
        {
          "indexed": false,
          "internalType": "uint256",
          "name": "proposalId",
          "type": "uint256"
        }
      ],
      "name": "Voted",
      "type": "event"
    },
    {
      "anonymous": false,
      "inputs": [
        {
          "indexed": false,
          "internalType": "address",
          "name": "voterAddress",
          "type": "address"
        }
      ],
      "name": "VoterRegistered",
      "type": "event"
    },
    {
      "anonymous": false,
      "inputs": [],
      "name": "VotesTallied",
      "type": "event"
    },
    {
      "anonymous": false,
      "inputs": [],
      "name": "VotingSessionEnded",
      "type": "event"
    },
    {
      "anonymous": false,
      "inputs": [],
      "name": "VotingSessionStarted",
      "type": "event"
    },
    {
      "anonymous": false,
      "inputs": [
        {
          "indexed": false,
          "internalType": "enum Voting.WorkflowStatus",
          "name": "previousStatus",
          "type": "uint8"
        },
        {
          "indexed": false,
          "internalType": "enum Voting.WorkflowStatus",
          "name": "newStatus",
          "type": "uint8"
        }
      ],
      "name": "WorkflowStatusChange",
      "type": "event"
    },
    {
      "inputs": [
        {
          "internalType": "uint256",
          "name": "",
          "type": "uint256"
        }
      ],
      "name": "addresses",
      "outputs": [
        {
          "internalType": "address",
          "name": "",
          "type": "address"
        }
      ],
      "stateMutability": "view",
      "type": "function",
      "constant": true
    },
    {
      "inputs": [],
      "name": "currentWorkflow",
      "outputs": [
        {
          "internalType": "enum Voting.WorkflowStatus",
          "name": "",
          "type": "uint8"
        }
      ],
      "stateMutability": "view",
      "type": "function",
      "constant": true
    },
    {
      "inputs": [],
      "name": "owner",
      "outputs": [
        {
          "internalType": "address",
          "name": "",
          "type": "address"
        }
      ],
      "stateMutability": "view",
      "type": "function",
      "constant": true
    },
    {
      "inputs": [
        {
          "internalType": "uint256",
          "name": "",
          "type": "uint256"
        }
      ],
      "name": "proposals",
      "outputs": [
        {
          "internalType": "string",
          "name": "description",
          "type": "string"
        },
        {
          "internalType": "uint256",
          "name": "voteCount",
          "type": "uint256"
        }
      ],
      "stateMutability": "view",
      "type": "function",
      "constant": true
    },
    {
      "inputs": [],
      "name": "renounceOwnership",
      "outputs": [],
      "stateMutability": "nonpayable",
      "type": "function"
    },
    {
      "inputs": [
        {
          "internalType": "address",
          "name": "newOwner",
          "type": "address"
        }
      ],
      "name": "transferOwnership",
      "outputs": [],
      "stateMutability": "nonpayable",
      "type": "function"
    },
    {
      "inputs": [
        {
          "internalType": "address",
          "name": "",
          "type": "address"
        }
      ],
      "name": "whitelist",
      "outputs": [
        {
          "internalType": "bool",
          "name": "isRegistered",
          "type": "bool"
        },
        {
          "internalType": "bool",
          "name": "hasVoted",
          "type": "bool"
        },
        {
          "internalType": "uint256",
          "name": "votedProposalId",
          "type": "uint256"
        }
      ],
      "stateMutability": "view",
      "type": "function",
      "constant": true
    },
    {
      "inputs": [],
      "name": "winningProposalId",
      "outputs": [
        {
          "internalType": "uint256",
          "name": "",
          "type": "uint256"
        }
      ],
      "stateMutability": "view",
      "type": "function",
      "constant": true
    },
    {
      "inputs": [],
      "name": "tallyVotes",
      "outputs": [],
      "stateMutability": "nonpayable",
      "type": "function"
    },
    {
      "inputs": [],
      "name": "endVotingSession",
      "outputs": [],
      "stateMutability": "nonpayable",
      "type": "function"
    },
    {
      "inputs": [
        {
          "internalType": "uint256",
          "name": "proposalId",
          "type": "uint256"
        }
      ],
      "name": "registerVote",
      "outputs": [],
      "stateMutability": "nonpayable",
      "type": "function"
    },
    {
      "inputs": [],
      "name": "startVotingSession",
      "outputs": [],
      "stateMutability": "nonpayable",
      "type": "function"
    },
    {
      "inputs": [],
      "name": "endProposalsRegistration",
      "outputs": [],
      "stateMutability": "nonpayable",
      "type": "function"
    },
    {
      "inputs": [
        {
          "internalType": "string",
          "name": "description",
          "type": "string"
        }
      ],
      "name": "registerProposal",
      "outputs": [],
      "stateMutability": "nonpayable",
      "type": "function"
    },
    {
      "inputs": [],
      "name": "startProposalsRegistration",
      "outputs": [],
      "stateMutability": "nonpayable",
      "type": "function"
    },
    {
      "inputs": [
        {
          "internalType": "address",
          "name": "_address",
          "type": "address"
        }
      ],
      "name": "addToWhitelist",
      "outputs": [],
      "stateMutability": "nonpayable",
      "type": "function"
    },
    {
      "inputs": [
        {
          "internalType": "address",
          "name": "_address",
          "type": "address"
        }
      ],
      "name": "getVoter",
      "outputs": [
        {
          "components": [
            {
              "internalType": "bool",
              "name": "isRegistered",
              "type": "bool"
            },
            {
              "internalType": "bool",
              "name": "hasVoted",
              "type": "bool"
            },
            {
              "internalType": "uint256",
              "name": "votedProposalId",
              "type": "uint256"
            }
          ],
          "internalType": "struct Voting.Voter",
          "name": "",
          "type": "tuple"
        }
      ],
      "stateMutability": "view",
      "type": "function",
      "constant": true
    },
    {
      "inputs": [],
      "name": "getAddresses",
      "outputs": [
        {
          "internalType": "address[]",
          "name": "",
          "type": "address[]"
        }
      ],
      "stateMutability": "view",
      "type": "function",
      "constant": true
    },
    {
      "inputs": [],
      "name": "getProposals",
      "outputs": [
        {
          "components": [
            {
              "internalType": "string",
              "name": "description",
              "type": "string"
            },
            {
              "internalType": "uint256",
              "name": "voteCount",
              "type": "uint256"
            }
          ],
          "internalType": "struct Voting.Proposal[]",
          "name": "",
          "type": "tuple[]"
        }
      ],
      "stateMutability": "view",
      "type": "function",
      "constant": true
    },
    {
      "inputs": [],
      "name": "getWorkflow",
      "outputs": [
        {
          "internalType": "enum Voting.WorkflowStatus",
          "name": "",
          "type": "uint8"
        }
      ],
      "stateMutability": "view",
      "type": "function",
      "constant": true
    },
    {
      "inputs": [],
      "name": "getWinningProposalId",
      "outputs": [
        {
          "internalType": "uint256",
          "name": "",
          "type": "uint256"
        }
      ],
      "stateMutability": "view",
      "type": "function",
      "constant": true
    }
  ],
  "bytecode": "0x608060405234801561001057600080fd5b5061002d61002261003260201b60201c565b61003a60201b60201c565b6100fe565b600033905090565b60008060009054906101000a900473ffffffffffffffffffffffffffffffffffffffff169050816000806101000a81548173ffffffffffffffffffffffffffffffffffffffff021916908373ffffffffffffffffffffffffffffffffffffffff1602179055508173ffffffffffffffffffffffffffffffffffffffff168173ffffffffffffffffffffffffffffffffffffffff167f8be0079c531659141344cd1fd0a4f28419497f9722a3daafe3b4186f6b6457e060405160405180910390a35050565b612330806200010e6000396000f3fe608060405234801561001057600080fd5b50600436106101375760003560e01c8063a39fac12116100b8578063e09b8c791161007c578063e09b8c79146102e3578063e43252d7146102ed578063e81e977b14610309578063edf26d9b14610327578063ee74c67814610357578063f2fde38b1461036157610137565b8063a39fac121461024f578063a56692ea1461026d578063a7bfab161461028b578063c64963c514610295578063d4f50f98146102b357610137565b806362564c48116100ff57806362564c48146101cd5780636c297445146101eb578063715018a6146101f55780638da5cb5b146101ff5780639b19251a1461021d57610137565b8063013cf08b1461013c5780631424ffbe1461016d5780632f95355b1461018b578063378a2178146101a7578063464d4a92146101b1575b600080fd5b61015660048036038101906101519190611947565b61037d565b604051610164929190611da2565b60405180910390f35b610175610439565b6040516101829190611d5e565b60405180910390f35b6101a560048036038101906101a091906118fa565b61044c565b005b6101af610656565b005b6101cb60048036038101906101c69190611947565b610782565b005b6101d5610a9d565b6040516101e29190611d05565b60405180910390f35b6101f3610b98565b005b6101fd610cc4565b005b610207610d4c565b6040516102149190611c9f565b60405180910390f35b610237600480360381019061023291906118cd565b610d75565b60405161024693929190611d27565b60405180910390f35b610257610db9565b6040516102649190611ce3565b60405180910390f35b610275610e47565b6040516102829190611d5e565b60405180910390f35b610293610e5e565b005b61029d610f8a565b6040516102aa9190611ead565b60405180910390f35b6102cd60048036038101906102c891906118cd565b610f90565b6040516102da9190611e92565b60405180910390f35b6102eb611029565b005b610307600480360381019061030291906118cd565b611155565b005b6103116113d7565b60405161031e9190611ead565b60405180910390f35b610341600480360381019061033c9190611947565b6113e1565b60405161034e9190611c9f565b60405180910390f35b61035f611420565b005b61037b600480360381019061037691906118cd565b61154c565b005b6005818154811061038d57600080fd5b90600052602060002090600202016000915090508060000180546103b09061203b565b80601f01602080910402602001604051908101604052809291908181526020018280546103dc9061203b565b80156104295780601f106103fe57610100808354040283529160200191610429565b820191906000526020600020905b81548152906001019060200180831161040c57829003601f168201915b5050505050908060010154905082565b600260009054906101000a900460ff1681565b3360011515600360008373ffffffffffffffffffffffffffffffffffffffff1673ffffffffffffffffffffffffffffffffffffffff16815260200190815260200160002060000160009054906101000a900460ff161515146104e3576040517f08c379a00000000000000000000000000000000000000000000000000000000081526004016104da90611e12565b60405180910390fd5b60018060058111156104f8576104f76120e5565b5b600260009054906101000a900460ff16600581111561051a576105196120e5565b5b1461055a576040517f08c379a000000000000000000000000000000000000000000000000000000000815260040161055190611e72565b60405180910390fd5b6005604051806040016040528086868080601f016020809104026020016040519081016040528093929190818152602001838380828437600081840152601f19601f8201169050808301925050505050505081526020016000815250908060018154018082558091505060019003906000526020600020906002020160009091909190915060008201518160000190805190602001906105fb929190611785565b506020820151816001015550507f92e393e9b54e2f801d3ea4beb0c5e71a21cc34a5d34b77d0fb8a3aa1650dc18f600160058054905061063b9190611f67565b6040516106489190611ead565b60405180910390a150505050565b61065e611644565b73ffffffffffffffffffffffffffffffffffffffff1661067c610d4c565b73ffffffffffffffffffffffffffffffffffffffff16146106d2576040517f08c379a00000000000000000000000000000000000000000000000000000000081526004016106c990611df2565b60405180910390fd5b60048060058111156106e7576106e66120e5565b5b600260009054906101000a900460ff166005811115610709576107086120e5565b5b14610749576040517f08c379a000000000000000000000000000000000000000000000000000000000815260040161074090611e72565b60405180910390fd5b610753600561164c565b7f0e5e95ff8725ab3e7a4b6b59998a4c344c2aa8d1485f5e60cb7f337768e6134760405160405180910390a150565b3360011515600360008373ffffffffffffffffffffffffffffffffffffffff1673ffffffffffffffffffffffffffffffffffffffff16815260200190815260200160002060000160009054906101000a900460ff16151514610819576040517f08c379a000000000000000000000000000000000000000000000000000000000815260040161081090611e12565b60405180910390fd5b600380600581111561082e5761082d6120e5565b5b600260009054906101000a900460ff1660058111156108505761084f6120e5565b5b14610890576040517f08c379a000000000000000000000000000000000000000000000000000000000815260040161088790611e72565b60405180910390fd5b60001515600360003373ffffffffffffffffffffffffffffffffffffffff1673ffffffffffffffffffffffffffffffffffffffff16815260200190815260200160002060000160019054906101000a900460ff16151514610926576040517f08c379a000000000000000000000000000000000000000000000000000000000815260040161091d90611e32565b60405180910390fd5b6001600360003373ffffffffffffffffffffffffffffffffffffffff1673ffffffffffffffffffffffffffffffffffffffff16815260200190815260200160002060000160016101000a81548160ff02191690831515021790555082600360003373ffffffffffffffffffffffffffffffffffffffff1673ffffffffffffffffffffffffffffffffffffffff16815260200190815260200160002060010181905550600583815481106109dc576109db612143565b5b906000526020600020906002020160010160008154809291906109fe9061206d565b9190505550600560015481548110610a1957610a18612143565b5b90600052602060002090600202016001015460058481548110610a3f57610a3e612143565b5b9060005260206000209060020201600101541115610a5f57826001819055505b7f4d99b957a2bc29a30ebd96a7be8e68fe50a3c701db28a91436490b7d53870ca43384604051610a90929190611cba565b60405180910390a1505050565b60606005805480602002602001604051908101604052809291908181526020016000905b82821015610b8f5783829060005260206000209060020201604051806040016040529081600082018054610af49061203b565b80601f0160208091040260200160405190810160405280929190818152602001828054610b209061203b565b8015610b6d5780601f10610b4257610100808354040283529160200191610b6d565b820191906000526020600020905b815481529060010190602001808311610b5057829003601f168201915b5050505050815260200160018201548152505081526020019060010190610ac1565b50505050905090565b610ba0611644565b73ffffffffffffffffffffffffffffffffffffffff16610bbe610d4c565b73ffffffffffffffffffffffffffffffffffffffff1614610c14576040517f08c379a0000000000000000000000000000000000000000000000000000000008152600401610c0b90611df2565b60405180910390fd5b6001806005811115610c2957610c286120e5565b5b600260009054906101000a900460ff166005811115610c4b57610c4a6120e5565b5b14610c8b576040517f08c379a0000000000000000000000000000000000000000000000000000000008152600401610c8290611e72565b60405180910390fd5b610c95600261164c565b7f240cb87b2e4df4c318e72bd714d45a9cad60249e883ff56b1fffd83a4595a8fa60405160405180910390a150565b610ccc611644565b73ffffffffffffffffffffffffffffffffffffffff16610cea610d4c565b73ffffffffffffffffffffffffffffffffffffffff1614610d40576040517f08c379a0000000000000000000000000000000000000000000000000000000008152600401610d3790611df2565b60405180910390fd5b610d4a60006116c1565b565b60008060009054906101000a900473ffffffffffffffffffffffffffffffffffffffff16905090565b60036020528060005260406000206000915090508060000160009054906101000a900460ff16908060000160019054906101000a900460ff16908060010154905083565b60606004805480602002602001604051908101604052809291908181526020018280548015610e3d57602002820191906000526020600020905b8160009054906101000a900473ffffffffffffffffffffffffffffffffffffffff1673ffffffffffffffffffffffffffffffffffffffff1681526020019060010190808311610df3575b5050505050905090565b6000600260009054906101000a900460ff16905090565b610e66611644565b73ffffffffffffffffffffffffffffffffffffffff16610e84610d4c565b73ffffffffffffffffffffffffffffffffffffffff1614610eda576040517f08c379a0000000000000000000000000000000000000000000000000000000008152600401610ed190611df2565b60405180910390fd5b6003806005811115610eef57610eee6120e5565b5b600260009054906101000a900460ff166005811115610f1157610f106120e5565b5b14610f51576040517f08c379a0000000000000000000000000000000000000000000000000000000008152600401610f4890611e72565b60405180910390fd5b610f5b600461164c565b7fc379d349a6301baf50fb2f98d829f4ae10b1cdb7c66f4e4d8117302df7b8cd4c60405160405180910390a150565b60015481565b610f9861180b565b600360008373ffffffffffffffffffffffffffffffffffffffff1673ffffffffffffffffffffffffffffffffffffffff1681526020019081526020016000206040518060600160405290816000820160009054906101000a900460ff161515151581526020016000820160019054906101000a900460ff161515151581526020016001820154815250509050919050565b611031611644565b73ffffffffffffffffffffffffffffffffffffffff1661104f610d4c565b73ffffffffffffffffffffffffffffffffffffffff16146110a5576040517f08c379a000000000000000000000000000000000000000000000000000000000815260040161109c90611df2565b60405180910390fd5b60008060058111156110ba576110b96120e5565b5b600260009054906101000a900460ff1660058111156110dc576110db6120e5565b5b1461111c576040517f08c379a000000000000000000000000000000000000000000000000000000000815260040161111390611e72565b60405180910390fd5b611126600161164c565b7f344c25562921d075a298d34b6dd1fd00d36ff293974539dfd4a8c625d9f0064c60405160405180910390a150565b61115d611644565b73ffffffffffffffffffffffffffffffffffffffff1661117b610d4c565b73ffffffffffffffffffffffffffffffffffffffff16146111d1576040517f08c379a00000000000000000000000000000000000000000000000000000000081526004016111c890611df2565b60405180910390fd5b60008060058111156111e6576111e56120e5565b5b600260009054906101000a900460ff166005811115611208576112076120e5565b5b14611248576040517f08c379a000000000000000000000000000000000000000000000000000000000815260040161123f90611e72565b60405180910390fd5b60001515600360008473ffffffffffffffffffffffffffffffffffffffff1673ffffffffffffffffffffffffffffffffffffffff16815260200190815260200160002060000160009054906101000a900460ff161515146112de576040517f08c379a00000000000000000000000000000000000000000000000000000000081526004016112d590611e52565b60405180910390fd5b6001600360008473ffffffffffffffffffffffffffffffffffffffff1673ffffffffffffffffffffffffffffffffffffffff16815260200190815260200160002060000160006101000a81548160ff0219169083151502179055506004829080600181540180825580915050600190039060005260206000200160009091909190916101000a81548173ffffffffffffffffffffffffffffffffffffffff021916908373ffffffffffffffffffffffffffffffffffffffff1602179055507fb6be2187d059cc2a55fe29e0e503b566e1e0f8c8780096e185429350acffd3dd826040516113cb9190611c9f565b60405180910390a15050565b6000600154905090565b600481815481106113f157600080fd5b906000526020600020016000915054906101000a900473ffffffffffffffffffffffffffffffffffffffff1681565b611428611644565b73ffffffffffffffffffffffffffffffffffffffff16611446610d4c565b73ffffffffffffffffffffffffffffffffffffffff161461149c576040517f08c379a000000000000000000000000000000000000000000000000000000000815260040161149390611df2565b60405180910390fd5b60028060058111156114b1576114b06120e5565b5b600260009054906101000a900460ff1660058111156114d3576114d26120e5565b5b14611513576040517f08c379a000000000000000000000000000000000000000000000000000000000815260040161150a90611e72565b60405180910390fd5b61151d600361164c565b7f1b8e19a458c1bcd88553332c518cc5c4e2d5793e712ee766d4f1c14f672ef1f560405160405180910390a150565b611554611644565b73ffffffffffffffffffffffffffffffffffffffff16611572610d4c565b73ffffffffffffffffffffffffffffffffffffffff16146115c8576040517f08c379a00000000000000000000000000000000000000000000000000000000081526004016115bf90611df2565b60405180910390fd5b600073ffffffffffffffffffffffffffffffffffffffff168173ffffffffffffffffffffffffffffffffffffffff161415611638576040517f08c379a000000000000000000000000000000000000000000000000000000000815260040161162f90611dd2565b60405180910390fd5b611641816116c1565b50565b600033905090565b7f0a97a4ee45751e2abf3e4fc8946939630b11b371ea8ae39ccdc3056e98f5cc3f600260009054906101000a900460ff168260405161168c929190611d79565b60405180910390a180600260006101000a81548160ff021916908360058111156116b9576116b86120e5565b5b021790555050565b60008060009054906101000a900473ffffffffffffffffffffffffffffffffffffffff169050816000806101000a81548173ffffffffffffffffffffffffffffffffffffffff021916908373ffffffffffffffffffffffffffffffffffffffff1602179055508173ffffffffffffffffffffffffffffffffffffffff168173ffffffffffffffffffffffffffffffffffffffff167f8be0079c531659141344cd1fd0a4f28419497f9722a3daafe3b4186f6b6457e060405160405180910390a35050565b8280546117919061203b565b90600052602060002090601f0160209004810192826117b357600085556117fa565b82601f106117cc57805160ff19168380011785556117fa565b828001600101855582156117fa579182015b828111156117f95782518255916020019190600101906117de565b5b5090506118079190611830565b5090565b6040518060600160405280600015158152602001600015158152602001600081525090565b5b80821115611849576000816000905550600101611831565b5090565b60008135905061185c816122cc565b92915050565b60008083601f84011261187857611877612177565b5b8235905067ffffffffffffffff81111561189557611894612172565b5b6020830191508360018202830111156118b1576118b061217c565b5b9250929050565b6000813590506118c7816122e3565b92915050565b6000602082840312156118e3576118e2612186565b5b60006118f18482850161184d565b91505092915050565b6000806020838503121561191157611910612186565b5b600083013567ffffffffffffffff81111561192f5761192e612181565b5b61193b85828601611862565b92509250509250929050565b60006020828403121561195d5761195c612186565b5b600061196b848285016118b8565b91505092915050565b600061198083836119a0565b60208301905092915050565b60006119988383611c02565b905092915050565b6119a981611f9b565b82525050565b6119b881611f9b565b82525050565b60006119c982611ee8565b6119d38185611f23565b93506119de83611ec8565b8060005b83811015611a0f5781516119f68882611974565b9750611a0183611f09565b9250506001810190506119e2565b5085935050505092915050565b6000611a2782611ef3565b611a318185611f34565b935083602082028501611a4385611ed8565b8060005b85811015611a7f5784840389528151611a60858261198c565b9450611a6b83611f16565b925060208a01995050600181019050611a47565b50829750879550505050505092915050565b611a9a81611fad565b82525050565b611aa981611fad565b82525050565b611ab881611ff6565b82525050565b6000611ac982611efe565b611ad38185611f45565b9350611ae3818560208601612008565b611aec8161218b565b840191505092915050565b6000611b0282611efe565b611b0c8185611f56565b9350611b1c818560208601612008565b611b258161218b565b840191505092915050565b6000611b3d602683611f56565b9150611b488261219c565b604082019050919050565b6000611b60602083611f56565b9150611b6b826121eb565b602082019050919050565b6000611b83601783611f56565b9150611b8e82612214565b602082019050919050565b6000611ba6601983611f56565b9150611bb18261223d565b602082019050919050565b6000611bc9601b83611f56565b9150611bd482612266565b602082019050919050565b6000611bec601583611f56565b9150611bf78261228f565b602082019050919050565b60006040830160008301518482036000860152611c1f8282611abe565b9150506020830151611c346020860182611c81565b508091505092915050565b606082016000820151611c556000850182611a91565b506020820151611c686020850182611a91565b506040820151611c7b6040850182611c81565b50505050565b611c8a81611fec565b82525050565b611c9981611fec565b82525050565b6000602082019050611cb460008301846119af565b92915050565b6000604082019050611ccf60008301856119af565b611cdc6020830184611c90565b9392505050565b60006020820190508181036000830152611cfd81846119be565b905092915050565b60006020820190508181036000830152611d1f8184611a1c565b905092915050565b6000606082019050611d3c6000830186611aa0565b611d496020830185611aa0565b611d566040830184611c90565b949350505050565b6000602082019050611d736000830184611aaf565b92915050565b6000604082019050611d8e6000830185611aaf565b611d9b6020830184611aaf565b9392505050565b60006040820190508181036000830152611dbc8185611af7565b9050611dcb6020830184611c90565b9392505050565b60006020820190508181036000830152611deb81611b30565b9050919050565b60006020820190508181036000830152611e0b81611b53565b9050919050565b60006020820190508181036000830152611e2b81611b76565b9050919050565b60006020820190508181036000830152611e4b81611b99565b9050919050565b60006020820190508181036000830152611e6b81611bbc565b9050919050565b60006020820190508181036000830152611e8b81611bdf565b9050919050565b6000606082019050611ea76000830184611c3f565b92915050565b6000602082019050611ec26000830184611c90565b92915050565b6000819050602082019050919050565b6000819050602082019050919050565b600081519050919050565b600081519050919050565b600081519050919050565b6000602082019050919050565b6000602082019050919050565b600082825260208201905092915050565b600082825260208201905092915050565b600082825260208201905092915050565b600082825260208201905092915050565b6000611f7282611fec565b9150611f7d83611fec565b925082821015611f9057611f8f6120b6565b5b828203905092915050565b6000611fa682611fcc565b9050919050565b60008115159050919050565b6000819050611fc7826122b8565b919050565b600073ffffffffffffffffffffffffffffffffffffffff82169050919050565b6000819050919050565b600061200182611fb9565b9050919050565b60005b8381101561202657808201518184015260208101905061200b565b83811115612035576000848401525b50505050565b6000600282049050600182168061205357607f821691505b6020821081141561206757612066612114565b5b50919050565b600061207882611fec565b91507fffffffffffffffffffffffffffffffffffffffffffffffffffffffffffffffff8214156120ab576120aa6120b6565b5b600182019050919050565b7f4e487b7100000000000000000000000000000000000000000000000000000000600052601160045260246000fd5b7f4e487b7100000000000000000000000000000000000000000000000000000000600052602160045260246000fd5b7f4e487b7100000000000000000000000000000000000000000000000000000000600052602260045260246000fd5b7f4e487b7100000000000000000000000000000000000000000000000000000000600052603260045260246000fd5b600080fd5b600080fd5b600080fd5b600080fd5b600080fd5b6000601f19601f8301169050919050565b7f4f776e61626c653a206e6577206f776e657220697320746865207a65726f206160008201527f6464726573730000000000000000000000000000000000000000000000000000602082015250565b7f4f776e61626c653a2063616c6c6572206973206e6f7420746865206f776e6572600082015250565b7f41646472657373206e6f742077686974656c6973746564000000000000000000600082015250565b7f416464726573732068617320616c726561647920766f74656400000000000000600082015250565b7f4164647265737320616c72656164792077686974656c69737465640000000000600082015250565b7f576f72666c6f77206e6f74207265737065637465640000000000000000000000600082015250565b600681106122c9576122c86120e5565b5b50565b6122d581611f9b565b81146122e057600080fd5b50565b6122ec81611fec565b81146122f757600080fd5b5056fea26469706673582212200551fdfb1c470563144f138faabb8e3ddfee3c9c378451ab13c5b6639b6fd6d264736f6c63430008060033",
  "immutableReferences": {},
  "source": "// SPDX-License-Identifier: GPL-3.0\npragma solidity ^0.8.0;\n\nimport \"@openzeppelin/contracts/access/Ownable.sol\";\nimport \"@openzeppelin/contracts/utils/math/SafeMath.sol\";\n\ncontract Voting is Ownable {\n\n    uint public winningProposalId;\n    WorkflowStatus public currentWorkflow;\n\n    struct Voter {\n        bool isRegistered;\n        bool hasVoted;\n        uint votedProposalId;\n    }\n\n    struct Proposal {\n        string description;\n        uint voteCount;\n    }\n\n    enum WorkflowStatus {\n        RegisteringVoters,\n        ProposalsRegistrationStarted,\n        ProposalsRegistrationEnded,\n        VotingSessionStarted,\n        VotingSessionEnded,\n        VotesTallied\n    }\n\n    event VoterRegistered(address voterAddress);\n    event ProposalsRegistrationStarted();\n    event ProposalsRegistrationEnded();\n    event ProposalRegistered(uint proposalId);\n    event VotingSessionStarted();\n    event VotingSessionEnded();\n    event Voted(address voter, uint proposalId);\n    event VotesTallied();\n    event WorkflowStatusChange(WorkflowStatus previousStatus, WorkflowStatus newStatus);\n\n    mapping (address => Voter) public whitelist;\n    address[] public addresses;\n    Proposal[] public proposals;\n\n    modifier onlyWhitelisted(address _address) {\n        require(whitelist[_address].isRegistered == true, \"Address not whitelisted\");\n        _;\n    }\n\n    modifier workflow(WorkflowStatus expectedWorkflow) {\n        require(currentWorkflow == expectedWorkflow, \"Worflow not respected\");\n        _;\n    }\n\n    function tallyVotes() external onlyOwner workflow(WorkflowStatus.VotingSessionEnded) {\n        changeWorkflowStatus(WorkflowStatus.VotesTallied);\n        emit VotesTallied();\n    }\n\n    function endVotingSession() external onlyOwner workflow(WorkflowStatus.VotingSessionStarted) {\n        changeWorkflowStatus(WorkflowStatus.VotingSessionEnded);\n        emit VotingSessionEnded();\n    }\n\n    function registerVote(uint proposalId) external onlyWhitelisted(msg.sender) workflow(WorkflowStatus.VotingSessionStarted) {\n        require(whitelist[msg.sender].hasVoted == false, \"Address has already voted\");\n        whitelist[msg.sender].hasVoted = true;\n        whitelist[msg.sender].votedProposalId = proposalId;\n        proposals[proposalId].voteCount++;\n\n        if (proposals[proposalId].voteCount > proposals[winningProposalId].voteCount) {\n            winningProposalId = proposalId;\n        }\n        emit Voted(msg.sender, proposalId);\n    }\n\n    function startVotingSession() external onlyOwner workflow(WorkflowStatus.ProposalsRegistrationEnded) {\n        changeWorkflowStatus(WorkflowStatus.VotingSessionStarted);\n        emit VotingSessionStarted();\n    }\n\n    function endProposalsRegistration() external onlyOwner workflow(WorkflowStatus.ProposalsRegistrationStarted) {\n        changeWorkflowStatus(WorkflowStatus.ProposalsRegistrationEnded);\n        emit ProposalsRegistrationEnded();\n    }\n\n    function registerProposal(string calldata description) external onlyWhitelisted(msg.sender) workflow(WorkflowStatus.ProposalsRegistrationStarted) {\n        proposals.push(Proposal(description, 0));\n        emit ProposalRegistered(proposals.length - 1);\n    }\n\n    function startProposalsRegistration() external onlyOwner workflow(WorkflowStatus.RegisteringVoters) {\n        changeWorkflowStatus(WorkflowStatus.ProposalsRegistrationStarted);\n        emit ProposalsRegistrationStarted();\n    }\n\n    function changeWorkflowStatus(WorkflowStatus newStatus) internal {\n        emit WorkflowStatusChange(currentWorkflow, newStatus);\n        currentWorkflow = newStatus;\n    }\n\n    function addToWhitelist(address _address) external onlyOwner workflow(WorkflowStatus.RegisteringVoters) {\n        require (whitelist[_address].isRegistered == false, \"Address already whitelisted\");\n        whitelist[_address].isRegistered = true;\n        addresses.push(_address);\n        emit VoterRegistered(_address);\n    }\n\n    function getVoter(address _address) public view returns(Voter memory) {\n        return whitelist[_address];\n    }\n\n    function getAddresses() public view returns(address[] memory){\n        return addresses;\n    }\n\n    function getProposals() public view returns(Proposal[] memory){\n        return proposals;\n    }\n\n    function getWorkflow() public view returns(WorkflowStatus){\n       return currentWorkflow;\n    }\n\n    function getWinningProposalId() public view returns(uint){\n       return winningProposalId;\n    }\n}",
  "sourcePath": "/Users/kilianmongey/Desktop/PLayGroundTest/VotingDapp/DappVoting/contracts/Voting.sol",
  "compiler": {
    "name": "solc",
    "version": "0.8.6+commit.11564f7e.Emscripten.clang"
  },
  "schemaVersion": "3.4.1",
  "updatedAt": "2021-07-31T13:20:37.054Z",
  "networkType": "ethereum",
  "devdoc": {
    "kind": "dev",
    "methods": {
      "owner()": {
        "details": "Returns the address of the current owner."
      },
      "renounceOwnership()": {
        "details": "Leaves the contract without owner. It will not be possible to call `onlyOwner` functions anymore. Can only be called by the current owner. NOTE: Renouncing ownership will leave the contract without an owner, thereby removing any functionality that is only available to the owner."
      },
      "transferOwnership(address)": {
        "details": "Transfers ownership of the contract to a new account (`newOwner`). Can only be called by the current owner."
      }
    },
    "version": 1
  },
  "userdoc": {
    "kind": "user",
    "methods": {},
    "version": 1
  }
}